{
  "contractName": "Election",
  "abi": [
    {
      "constant": true,
      "inputs": [],
      "name": "candidatesCount",
      "outputs": [
        {
          "name": "",
          "type": "uint256"
        }
      ],
      "payable": false,
      "stateMutability": "view",
      "type": "function"
    },
    {
      "constant": true,
      "inputs": [
        {
          "name": "",
          "type": "uint256"
        }
      ],
      "name": "candidates",
      "outputs": [
        {
          "name": "id",
          "type": "uint256"
        },
        {
          "name": "name",
          "type": "string"
        },
        {
          "name": "votes",
          "type": "uint256"
        }
      ],
      "payable": false,
      "stateMutability": "view",
      "type": "function"
    },
    {
      "constant": true,
      "inputs": [
        {
          "name": "",
          "type": "address"
        }
      ],
      "name": "voted",
      "outputs": [
        {
          "name": "",
          "type": "bool"
        }
      ],
      "payable": false,
      "stateMutability": "view",
      "type": "function"
    },
    {
      "inputs": [],
      "payable": false,
      "stateMutability": "nonpayable",
      "type": "constructor"
    },
    {
      "constant": false,
      "inputs": [
        {
          "name": "name",
          "type": "string"
        }
      ],
      "name": "addCandidate",
      "outputs": [
        {
          "name": "",
          "type": "bool"
        }
      ],
      "payable": false,
      "stateMutability": "nonpayable",
      "type": "function"
    },
    {
      "constant": false,
      "inputs": [
        {
          "name": "candidateID",
          "type": "uint256"
        }
      ],
      "name": "vote",
      "outputs": [
        {
          "name": "",
          "type": "bool"
        }
      ],
      "payable": false,
      "stateMutability": "nonpayable",
      "type": "function"
    }
  ],
  "bytecode": "0x6080604052336000806101000a81548173ffffffffffffffffffffffffffffffffffffffff021916908373ffffffffffffffffffffffffffffffffffffffff16021790555034801561005057600080fd5b506000600381905550610610806100686000396000f30060806040526004361061006d576000357c0100000000000000000000000000000000000000000000000000000000900463ffffffff1680630121b93f146100725780632d35a8a2146100b75780633477ee2e146100e2578063462e91ec14610196578063aec2ccae14610217575b600080fd5b34801561007e57600080fd5b5061009d60048036038101908080359060200190929190505050610272565b604051808215151515815260200191505060405180910390f35b3480156100c357600080fd5b506100cc610372565b6040518082815260200191505060405180910390f35b3480156100ee57600080fd5b5061010d60048036038101908080359060200190929190505050610378565b6040518084815260200180602001838152602001828103825284818151815260200191508051906020019080838360005b8381101561015957808201518184015260208101905061013e565b50505050905090810190601f1680156101865780820380516001836020036101000a031916815260200191505b5094505050505060405180910390f35b3480156101a257600080fd5b506101fd600480360381019080803590602001908201803590602001908080601f016020809104026020016040519081016040528093929190818152602001838380828437820191505050505050919291929050505061043a565b604051808215151515815260200191505060405180910390f35b34801561022357600080fd5b50610258600480360381019080803573ffffffffffffffffffffffffffffffffffffffff16906020019092919050505061051f565b604051808215151515815260200191505060405180910390f35b6000801515600260003373ffffffffffffffffffffffffffffffffffffffff1673ffffffffffffffffffffffffffffffffffffffff16815260200190815260200160002060009054906101000a900460ff1615151415156102d257600080fd5b6000821180156102e457506003548211155b15156102ef57600080fd5b6001600260003373ffffffffffffffffffffffffffffffffffffffff1673ffffffffffffffffffffffffffffffffffffffff16815260200190815260200160002060006101000a81548160ff0219169083151502179055506001600083815260200190815260200160002060020160008154809291906001019190505550919050565b60035481565b6001602052806000526040600020600091509050806000015490806001018054600181600116156101000203166002900480601f01602080910402602001604051908101604052809291908181526020018280546001816001161561010002031660029004801561042a5780601f106103ff5761010080835404028352916020019161042a565b820191906000526020600020905b81548152906001019060200180831161040d57829003601f168201915b5050505050908060020154905083565b60008060009054906101000a900473ffffffffffffffffffffffffffffffffffffffff1673ffffffffffffffffffffffffffffffffffffffff163373ffffffffffffffffffffffffffffffffffffffff1614151561049b576000905061051a565b6003600081548092919060010191905055506060604051908101604052806003548152602001838152602001600081525060016000600354815260200190815260200160002060008201518160000155602082015181600101908051906020019061050792919061053f565b5060408201518160020155905050600190505b919050565b60026020528060005260406000206000915054906101000a900460ff1681565b828054600181600116156101000203166002900490600052602060002090601f016020900481019282601f1061058057805160ff19168380011785556105ae565b828001600101855582156105ae579182015b828111156105ad578251825591602001919060010190610592565b5b5090506105bb91906105bf565b5090565b6105e191905b808211156105dd5760008160009055506001016105c5565b5090565b905600a165627a7a7230582022450ef039c561000a66a41a13beca2a45b389b7feae7045362a06857a6a8d9e0029",
  "source": "pragma solidity ^0.4.18;\n\n/**\n * The Election contract simulates an election happening between candidates, \n   where voters are users on the blockchain.\n */\ncontract Election {\n\n\t//data\n\tstruct Candidate{\n\t\t//struct to symbolize a candidate contesting the election\n\t\tuint id;\n\t\tstring name;\n\t\tuint votes;\n\t}\n\taddress authority = msg.sender;\n\n\tmapping (uint => Candidate) public candidates; //maps IDs of candidates to the Candidate structs\n\t\n\tmapping (address => bool) public voted;//maps voter addresses to whether they have voted or not\n\t\n\n\tuint public candidatesCount;\n\n\tconstructor () {\n\t\t//constructor\n\t\tcandidatesCount=0;\n\t}\n\n\t//functions\n\tfunction addCandidate (string name) public returns (bool)  {\n\t//Adds a candidate to the mapping of candidates contesting\n\tif(msg.sender!=authority)\n\t{\n\t\treturn false;//returns false if the person trying to add the candidate isn't the person\n\t\t\t\t\t //who created the smart contract\n\t}\n\tcandidatesCount++;\n\tcandidates[candidatesCount]=Candidate(candidatesCount,name,0);\n\treturn true;\t //returns true if it passed\n\t}\n\t\n\tfunction vote(uint candidateID) public returns (bool)  {\n\t//Allows a voter to vote for a candidate\n\t\trequire(voted[msg.sender]==false);//makes sure the candidate hasn't already voted once\n\n\t\trequire (candidateID>0 && candidateID<=candidatesCount);//makes sure that the ID the voter\n\t\t\t\t\t\t\t\t\t\t\t\t\t\t\t\t//is voting for belongs to a candidate\n\t\tvoted[msg.sender]=true;\n\t\tcandidates[candidateID].votes++;\n\t}\n\t\n}\n",
  "sourcePath": "/home/atharv/Desktop/All Sol files/5_Election/contracts/Election.sol",
  "compiler": {
    "name": "solc",
    "version": "0.4.24+commit.e67f0147.Emscripten.clang"
  },
  "schemaVersion": "2.0.1",
  "updatedAt": "2018-11-13T16:30:29.957Z"
}